:020000040800F2
:10000000009000205D2900083D2900083F290008D4
:1000100000000000000000000000000000000000E0
:10002000000000000000000000000000412900085E
:1000300000000000000000004329000845290008D6
:10004000AD290008AD290008AD290008AD29000838
:10005000AD290008AD290008AD290008AD29000828
:10006000AD290008AD290008AD290008AD29000818
:10007000AD290008AD290008AD290008AD29000808
:10008000AD290008AD290008AD290008AD290008F8
:10009000AD290008AD290008AD290008AD290008E8
:1000A000AD290008AD290008AD290008AD290008D8
:0C00B000AD290008AD290008AD290008AA
:1000BC0010B5064C2378002B07D1054B002B02D032
:1000CC00044800E000BF0123237010BD0C00002089
:1000DC0000000000082A0008044B10B5002B03D0C8
:1000EC000349044800E000BF10BDC04600000000FA
:1000FC0010000020082A0008002243088B4274D309
:10010C0003098B425FD3030A8B4244D3030B8B420C
:10011C0028D3030C8B420DD3FF22090212BA030C15
:10012C008B4202D31212090265D0030B8B4219D3F6
:10013C0000E0090AC30B8B4201D3CB03C01A524116
:10014C00830B8B4201D38B03C01A5241430B8B425E
:10015C0001D34B03C01A5241030B8B4201D30B0347
:10016C00C01A5241C30A8B4201D3CB02C01A52416E
:10017C00830A8B4201D38B02C01A5241430A8B4231
:10018C0001D34B02C01A5241030A8B4201D30B021A
:10019C00C01A5241CDD2C3098B4201D3CB01C01A34
:1001AC00524183098B4201D38B01C01A524143093E
:1001BC008B4201D34B01C01A524103098B4201D32C
:1001CC000B01C01A5241C3088B4201D3CB00C01A99
:1001DC00524183088B4201D38B00C01A5241430811
:1001EC008B4201D34B00C01A5241411A00D2014636
:1001FC00524110467047FFE701B5002000F0F0F8BF
:10020C0002BDC0460029F7D076E7704703460B4382
:10021C007FD4002243088B4274D303098B425FD3F3
:10022C00030A8B4244D3030B8B4228D3030C8B421F
:10023C000DD3FF22090212BA030C8B4202D3121205
:10024C00090265D0030B8B4219D300E0090AC30BDA
:10025C008B4201D3CB03C01A5241830B8B4201D387
:10026C008B03C01A5241430B8B4201D34B03C01A70
:10027C005241030B8B4201D30B03C01A5241C30AE8
:10028C008B4201D3CB02C01A5241830A8B4201D359
:10029C008B02C01A5241430A8B4201D34B02C01A43
:1002AC005241030A8B4201D30B02C01A5241CDD2E8
:1002BC00C3098B4201D3CB01C01A524183098B4233
:1002CC0001D38B01C01A524143098B4201D34B011C
:1002DC00C01A524103098B4201D30B01C01A52417F
:1002EC00C3088B4201D3CB00C01A524183088B4206
:1002FC0001D38B00C01A524143088B4201D34B00EF
:10030C00C01A5241411A00D2014652411046704760
:10031C005DE0CA0F00D04942031000D34042534065
:10032C0000229C4603098B422DD3030A8B4212D325
:10033C00FC22890112BA030A8B420CD38901921157
:10034C008B4208D3890192118B4204D389013AD094
:10035C00921100E08909C3098B4201D3CB01C01A69
:10036C00524183098B4201D38B01C01A524143097C
:10037C008B4201D34B01C01A524103098B4201D36A
:10038C000B01C01A5241C3088B4201D3CB00C01AD7
:10039C00524183088B4201D38B00C01A5241D9D2EF
:1003AC0043088B4201D34B00C01A5241411A00D270
:1003BC000146634652415B10104601D34042002B6C
:1003CC0000D54942704763465B1000D3404201B5EB
:1003DC00002000F005F802BD0029F8D016E77047A0
:1003EC007047C046002B11D1002A0FD1002900D133
:1003FC00002802D00021C943081C07B4024802A1FE
:10040C004018029003BDC046D9FFFFFF03B46846F5
:10041C0001B5029800F006F8019B9E4602B00CBC98
:10042C007047C046F0B54F464646D646C0B50400A8
:10043C0082B00D00914698468B422FD82CD0414665
:10044C00484600F0B1F829000600200000F0ACF896
:10045C00331A9C46203B9A4600D576E04B465246D2
:10046C0093401F004B46624693401E00AF4228D873
:10047C0025D05346A41BBD41002B00DA7BE00022A3
:10048C0000230092019301235246934001930123D0
:10049C0062469340009318E08242D0D90022002398
:1004AC00009201930A9B002B01D01C605D600098A8
:1004BC00019902B01CBC90469946A246F0BDA342DD
:1004CC00D7D900220023009201936346002BE9D078
:1004DC00FB079846414672080A437B0866460EE0C5
:1004EC00AB4201D1A2420CD8A41A9D41012024197F
:1004FC006D410021013E24184D41002E06D0AB4227
:10050C00EED9013E24196D41002EF8D100980199C5
:10051C00534600196941002B23DB2B005246D34074
:10052C002A006446E2401C0053461500002B2DDBCC
:10053C0026005746BE40330026006746BE403200B8
:10054C00801A994100900191ACE7624620239B1AD6
:10055C004A46DA406146130042468A4017001F4360
:10056C0080E7624620239B1A2A0066469A402300A5
:10057C00F3401343D4E76246202300219B1A002248
:10058C00009101920122DA40019280E72023624619
:10059C0026009B1ADE402F00B0466646B740464602
:1005AC003B003343C8E7C04610B5002903D100F027
:1005BC0007F8203002E0081C00F002F810BDC0461D
:1005CC001C2101231B04984201D3000C10391B0A77
:1005DC00984201D3000A08391B09984201D300093B
:1005EC00043902A2105C40187047C0460403020292
:1005FC0001010101000000000000000010B5040022
:10060C00114B1968002901D1012010BDFA2080007E
:10061C00FFF772FD01000D4B1868FFF76DFD00F040
:10062C007FF800280DD1032C01D90120EDE7013012
:10063C0000222100404200F043F8034B5C60002094
:10064C00E3E70120E1E7C04600000020080000209D
:10065C0010B5084A116880235B000B43136000201F
:10066C00FFF7CCFF041E02D00124200010BD02F0C5
:10067C00E1F8FAE700200240034A136803490968CD
:10068C005B1813607047C046280000200000002053
:10069C00014B18687047C0462800002070B5040054
:1006AC00FFF7F6FF0500631C02D0044B1B68E4182F
:1006BC00FFF7EEFF401BA042FAD370BD00000020F4
:1006CC0070B5002811DB8408134DC034A4006259A6
:1006DC0003231840C000FC331E008640B24389013E
:1006EC000B4083401343635170BDC0B20F220240D4
:1006FC00083A920806329200084BD3185D6803241E
:10070C002040C000FF2214008440A54389010A4008
:10071C0082402A435A60E7E700E100E000ED00E088
:10072C0001380A4B98420FD8094A50600948036AAD
:10073C001B021B0AC02109060B43036200239360B2
:10074C0007331360002070470120FCE7FFFFFF0018
:10075C0010E000E000ED00E0F0B5C64600B5002367
:10076C003BE0032600E00026AE4035003D43534EEF
:10077C001834A400A551802435594246D4432E0088
:10078C0026404A68D20302D5424615432E004B4DF3
:10079C008027EE518426AD592E0026404A689203DC
:1007AC0002D5424615432E00444D8427EE512D6848
:1007BC002E0026404A68D20202D5424615432E002E
:1007CC003E4D2E606D682C404A68920202D542461E
:1007DC002A431400394A546001330A681400DC407F
:1007EC0069D001259D402A409046F5D04C68022CDA
:1007FC0001D0122C0ED1DC080834A400275807268F
:10080C001E40B6000F22B24097430A69B240160050
:10081C003E43265002685F0003242600BE40F64388
:10082C00324094464A681440BC406246144304600B
:10083C004C68621E012A03D9112C01D0122C10D144
:10084C0084683440A446CC68BC406246144384603F
:10085C004468AC434A681209012515409D40254364
:10086C004560C46826408C68BC403443C4604A6808
:10087C00D200B1D59C0825001835AD000F4EAF59EC
:10088C0003251D40ED000F26AE40B743A026F6050C
:10089C00B04200D167E70A4EB04208D0094EB042D0
:1008AC0007D0094EB04200D15BE705265CE7012674
:1008BC005AE7022658E704BC9046F0BD00180240E7
:1008CC000004005000080050000C0050002A01D118
:1008DC00816270478161FCE743690B40994201D00A
:1008EC008161704709048161FBE703689A6992078B
:1008FC0001D500229A6203689A69D20703D49A69D7
:10090C0001210A439A617047F0B5059C0568686837
:10091C00660D8027FF003740054E3E43B0438905E6
:10092C00890D120411430B43234303436B60F0BD49
:10093C00FF63FF0370B504000E00150003689B698C
:10094C00DB0619D523689A69920617D4731CF9D063
:10095C00FFF79EFE401BB04201D8002EF2D1636C13
:10096C002022134363644123E25400232232A35414
:10097C00023AA35401201AE0002018E01022DA6198
:10098C0023682025DD612000FFF7AFFF2268536844
:10099C0007490B405360636C042213436364412387
:1009AC00E55400233E32A354023AA354012070BDF7
:1009BC0000E800FE70B504000D00160023689B696A
:1009CC009B071CD4320029002000FFF7B3FF00283E
:1009DC0017D16B1CF2D0FFF75BFE801BA84201D82D
:1009EC00002DEBD1636C2022134363644123E2544A
:1009FC0000232232A354023AA354012000E0002029
:100A0C0070BD0120FCE7F8B506000C0017001D00B6
:100A1C0033689B6923401B1B5A425341BB4216D17E
:100A2C006B1CF5D0FFF734FE069BC01AA84201D808
:100A3C00002DEDD1736C2022134373644123F254C7
:100A4C0000232232B354023AB354012000E00020B8
:100A5C00F8BD70B505000C0016002B689B699B0651
:100A6C001AD4320021002800FFF764FF002815D1AA
:100A7C00FFF70EFE801BA04201D8002CEDD16B6C51
:100A8C00202213436B644123EA5400232232AB54DB
:100A9C00023AAB54012070BD0020FCE70120FAE7BC
:100AAC0010B5041E59D04123C35C002B43D0412305
:100ABC002422E2542268136801218B4313602268BC
:100ACC00274B61680B4013612268936825490B40E2
:100ADC009360E368012B34D0226884231B02A16845
:100AEC000B439360E368022B32D0226851681E4B93
:100AFC000B4353602268D3681A490B40D3602369B7
:100B0C0062691343A269120221681343CB60226805
:100B1C00E369216A0B4313602268136801210B43BC
:100B2C0013600023636441221F31A15423630132FB
:100B3C00A354002010BD40330022C25401F092FE99
:100B4C00B5E7226880231B02A1680B439360C9E7B9
:100B5C002368802212015A60C7E70120EAE7C046E9
:100B6C00FFFFFFF0FF7FFFFF00800002F0B585B0B4
:100B7C000500039117001E004123C35C202B00D0FD
:100B8C0099E02033C35C012B00D197E04023012274
:100B9C00C254FFF77DFD040080210090192301222F
:100BAC0009022800FFF72FFF002800D088E041231E
:100BBC002122EA540133113AEA5400236B646F6228
:100BCC006E856B636B8D9BB2FF2B0BD9FF232B8533
:100BDC007F3B3F4A00925B04FF2203992800FFF7FA
:100BEC0093FE18E06A8D92B22A858023D2B23849DE
:100BFC0000919B0403992800FFF786FE0BE06A8D99
:100C0C0092B22A858023D2B2002100919B040399D1
:100C1C002800FFF779FE6B8D9BB2002B34D022009D
:100C2C000A992800FFF7C6FE00284BD12B686A6A88
:100C3C0012789A626B6A01336B626B8D013B9BB2CB
:100C4C006B852B8D013B9BB22B856A8D92B2002A52
:100C5C00E1D0002BDFD100940A9B002280212800D8
:100C6C00FFF7D1FE00282FD16B8D9BB2FF2BC6D97D
:100C7C00FF232B857F3B002200925B04FF320399FC
:100C8C002800FFF741FEC6E722000A992800FFF76B
:100C9C00E0FE00281AD12B682022DA6129684B6803
:100CAC000C4C23404B604123EA5400232232AB54BA
:100CBC00023AAB5400E0022005B0F0BD0220FBE785
:100CCC000120F9E70120F7E70120F5E70120F3E720
:100CDC000020008000E800FEF0B54123C35C202B0F
:100CEC0020D12033C35C012B1ED04024012202559D
:100CFC0041252423435506683368934333600668C3
:100D0C0033680A4F3B4033600668336819433160DF
:100D1C0001680B6813430B602023435500230355D4
:100D2C00002000E00220F0BD0220FCE7FFEFFFFFF7
:100D3C00F0B54123C35C202B1ED12033C35C012BA7
:100D4C001CD040240122025541252423435506681A
:100D5C0033689343336006683368094F3B4009029C
:100D6C001943316001680B6813430B602023435512
:100D7C0000230355002000E00220F0BD0220FCE718
:100D8C00FFF0FFFF10B5104A136810490B400343E6
:100D9C00136080239B00984201D0002010BD0C4BA7
:100DAC001A6853009B1858000A49FFF7A5F901303F
:100DBC00054B5B695B0503D5002803D00138F7E7C9
:100DCC000020EBE70320E9E700700040FFF9FFFF8C
:100DDC000800002040420F0070B582B0041E00D104
:100DEC0003E20368DB0737D5BF4A916838230B4011
:100DFC00D16803220A40102B24D0082B24D063681E
:100E0C008022520293427CD0A022D20293427FD005
:100E1C00B54B1A68B5490A401A601A68B4490A40B9
:100E2C001A606368002B7FD0FFF732FC0500AE4BD5
:100E3C001B689B0310D4FFF72BFC401B6428F6D9CE
:100E4C000320D3E1032AD8D1A74B1B689B0303D5FE
:100E5C006368002B00D1CBE123689B0730D5A24AF5
:100E6C00936838210B40D16803220A40102B69D0BB
:100E7C00002B6AD19C4A1268520503D5E268002AFD
:100E8C0000D1B7E1984842689A490A406169090261
:100E9C000A434260002B0DD1036897490B4021692E
:100EAC000B4303600368DB0A07221A40934BD340C1
:100EBC00934A13600020FFF7A1FB002800D09BE1B0
:100ECC0023681B0700D481E0874B9A6838231340B2
:100EDC00182B73D0A369002B00D191E0824A136EBA
:100EEC0001210B431366FFF7D3FB05007E4B1B6EF2
:100EFC009B076BD4FFF7CCFB401B0228F6D90320D1
:100F0C0074E1794A116880235B020B43136088E714
:100F1C00754B19688022D2020A431A601968802224
:100F2C0052020A431A607CE7FFF7B2FB05006E4BD6
:100F3C001B689B0390D5FFF7ABFB401B6428F6D9CD
:100F4C00032053E1022A93D194E7E368002B22D0CB
:100F5C00654A136868490B4021690B43136011689B
:100F6C0080235B000B431360FFF792FB05005E4B85
:100F7C001B685B0506D4FFF78BFB401B0228F6D9D8
:100F8C00032033E158494B685A4A134062691202F4
:100F9C0013434B6094E7544A13685A490B4013604F
:100FAC00FFF776FB0500504B1B685B0588D5FFF7F8
:100FBC006FFB401B0228F6D9032017E14A4B1B6E2E
:100FCC009B0703D5A369002B00D117E123685B07AE
:100FDC0000D49FE0444B9A6838231340202B22D036
:100FEC00414BDB6BDB0027D43F4AD16B80204005A3
:100FFC000143D163D36B03400193019B01251CE09A
:10100C00394A136E01218B431366FFF741FB050030
:10101C00354B1B6E9B07D9D5FFF73AFB401B0228BB
:10102C00F6D90320E2E0304BDB6D9B0772D5A36849
:10103C00002B6FD10120D9E00025334B1B68DB0559
:10104C001FD5A368012B30D0052B34D0264BDA6D7D
:10105C0001218A43DA65DA6D03318A43DA65A368C4
:10106C00002B32D0FFF714FB06001F4BDB6D9B07E8
:10107C004ED4FFF70DFB801B244B9842F5D903206F
:10108C00B4E0214A116880235B000B431360FFF727
:10109C00FFFA06001C4B1B68DB05D2D4FFF7F8FAED
:1010AC00801B0228F6D90320A0E00F4AD36D012142
:1010BC000B43D365D3E70C4BDA6D04210A43DA6595
:1010CC00DA6D03390A43DA65C9E7FFF7E1FA06007E
:1010DC00054BDB6D9B071BD5FFF7DAFA801B0B4B1F
:1010EC009842F5D9032081E000100240FFFFFEFF7B
:1010FC00FFFFFBFFFF80FFFFFFC7FFFF0024F40093
:10110C0008000020FFFEFFFF007000408813000065
:10111C00012D27D0E369002B00D171E03A4A916888
:10112C0038220A40102A00D16CE0022B20D0364B1A
:10113C001A6836490A401A60DA6803218A43DA6071
:10114C00DA6833490A40DA60FFF7A2FA04002E4B42
:10115C001B689B0147D5FFF79BFA001B0228F6D9A9
:10116C00032043E0284AD36B2A490B40D363D1E7D1
:10117C00254A136825490B401360FFF789FA0500CF
:10118C00214B1B689B0106D5FFF782FA401B0228F6
:10119C00F6D903202AE0636B226B1343E26A1343F4
:1011AC00A26A12021343626A1343226A1343164A59
:1011BC00D360116880235B040B431360D1688023D8
:1011CC005B050B43D360FFF763FA04000E4B1B68FF
:1011DC009B0106D4FFF75CFA001B0228F6D903200A
:1011EC0004E0002002E0002000E0012002B070BD0D
:1011FC000120FBE70120F9E70120F7E70120F5E7E3
:10120C000020F3E70120F1E700100240FFFFFFFE92
:10121C00FFFFFEEEFFFFFFEF10B52B4B9B68382254
:10122C001A4219D0284B9A6838231340082B46D001
:10123C00254B9A6838231340102B18D0224B9A68F0
:10124C0038231340202B3CD01F4B9A683823134073
:10125C00182B31D0002009E01B4B1A68D20A072347
:10126C001340012199401948FEF746FF10BD164A5C
:10127C00D1680D3B0B40D268120907211140013196
:10128C00032B0FD11248FEF737FF0F4BDA68120A07
:10129C007F23134058430C4BD968490F0131FEF79B
:1012AC002BFFE3E70948FEF727FF074BDA68120A22
:1012BC007F2313405843EEE7FA20C001D6E70448D9
:1012CC00D4E780200002D1E7001002400024F40093
:1012DC00006CDC0270B504000D00002800D1A9E000
:1012EC00564B1A68072313408B4221D323689A0765
:1012FC000ED55B0705D5524A9168E023DB010B4301
:10130C0093604F4A93684F490B40A1680B4393601D
:10131C002368DB0754D56368012B20D0022B3BD00C
:10132C00002B3FD1464A126852051CD4012069E0BB
:10133C00424A136807218B432B431360FFF7A8F92C
:10134C0006003E4B1A6807231340AB42CED0FFF782
:10135C009FF9801B3C4B9842F3D9032052E0384A4A
:10136C001268920368D536498A6807208243134372
:10137C008B60FFF78DF90600314B9B6838221A40C1
:10138C006368DB009A421BD0FFF782F9801B2E4B5F
:10139C009842F1D9032035E0294A12689201E2D42F
:1013AC0001202FE0032B05D0254AD26D9207DAD409
:1013BC00012027E0224A126E9207D4D4012021E0AA
:1013CC001E4B1A6807231340AB421CD823685B07DB
:1013DC0006D51B4A93681D490B40E1680B4393608B
:1013EC00FFF71AFF164B9A68120A0F2313409B0043
:1013FC00174A9A581F231340D840164B18600020E8
:10140C00FFF7FCF870BD0D4A136807218B432B4383
:10141C001360FFF73DF90600084B1A6807231340C9
:10142C00AB42D3D0FFF734F9801B074B9842F3D96A
:10143C000320E7E70120E5E70120E3E70020024075
:10144C0000100240FFF0FFFF88130000FF8FFFFF2A
:10145C00302A000808000020014B18687047C0466D
:10146C000800002010B5FFF7F7FF064B9A68120B27
:10147C00072313409B00044A9A581F231340D8405B
:10148C0010BDC04600100240702A0008F0B583B0B1
:10149C00040003689B0360D5804BDB6BDB001ED420
:1014AC007E4AD16B802040050143D163D36B03404E
:1014BC000193019B01267A4A116880235B000B4340
:1014CC001360FFF7E5F80500754B1B68DB0508D4C6
:1014DC00FFF7DEF8401B0228F6D9032502E00026B0
:1014EC00E9E70025002D21D16C4BDB6DC022920069
:1014FC00134010D0226B9A420DD0684AD36D6949C3
:10150C000B40D06D802149020143D165D16D6648F5
:10151C000140D165D365DB0710D4002D06D15F4A9D
:10152C00D36D60490B40216B0B43D365012E15D154
:10153C005A4AD36B5D490B40D3630FE0FFF7A8F811
:10154C000700564BDB6D9B07E7D4FFF7A1F8C01BD8
:10155C00574B9842F5D90325DFE700252368DB07B5
:10156C0006D54E4A536D03218B4361680B4353657B
:10157C0023689B0706D5494A536D0C218B43A16800
:10158C000B43536523689B0606D5444A536D494962
:10159C000B40E1680B43536523689B0506D53F4A16
:1015AC00536D45490B40A1690B43536523685B059B
:1015BC0006D53A4A536D41490B40E1690B435365DB
:1015CC0023685B0606D5354A536D3D490B402169AE
:1015DC000B43536523685B040BD5304A536D9B005A
:1015EC009B08216A0B4353658023DB05226A9A42D0
:1015FC0039D023681B0306D5284A536D40218B43F1
:10160C00616A0B43536523689B020BD5234A536DC8
:10161C002C490B40A16A0B4353658023DB03A26A60
:10162C009A4227D023685B020BD51C4A536D26497E
:10163C000B40E16A0B43536580235B04E26A9A42D8
:10164C001FD023681B050BD5144A536D1F490B4043
:10165C0061690B43536562698023DB019A4215D0A3
:10166C00280003B0F0BD0D4AD16880235B020B4308
:10167C00D360BEE7094AD16880235B040B43D36077
:10168C00D0E7064AD1680B43D360DAE7034AD16846
:10169C0080235B020B43D360E2E7C046001002409C
:1016AC0000700040FFFCFFFFFFFFFEFFFFFFFFEF9E
:1016BC0088130000FFF3FFFFFFFFF3FFFFFFCFFFD7
:1016CC00FFCFFFFFFFFFBFFFFFFFFFFEFF3FFFFF4F
:1016DC00F8B5040001688368026913434269134337
:1016EC00C2691343426E1A430B68BD48034013434F
:1016FC000B6022685368BB490B40E1680B43536095
:10170C00A1692268B84B9A4201D0236A19439368A5
:10171C00B64803400B4393602268D36A0F218B4376
:10172C00616A0B43D3622368B14A93425CD0B14ADD
:10173C0093426DD0B04A934200D19EE0AF4A93429F
:10174C0000D19CE0A84A934277D01025A64A934238
:10175C0000D198E080231B02E2699A4200D151E348
:10176C00022D01D100F0F8FC01D800F0A1FC042DF1
:10177C0001D100F02DFD082D01D000F093FD636A1E
:10178C00002B01D100F067FD012B01D100F06FFDA2
:10179C00022B01D100F06EFD032B01D100F06DFD89
:1017AC00042B01D100F06BFD052B01D100F06AFD7B
:1017BC00062B01D100F068FD072B01D100F066FD6E
:1017CC00082B01D100F065FD092B01D100F064FD5F
:1017DC000A2B01D100F063FD0B2B01D100F039FD78
:1017EC0080231B0200F039FD854A516D03220A400B
:1017FC00012A09D0002A05D0022A3AD0032A05D0A2
:10180C001025A3E70025A1E704259FE708259DE700
:10181C007B4A516D0C220A40042A0AD005D9082AA9
:10182C0029D00C2A07D1082590E7002A03D10025DE
:10183C008CE704258AE7102588E7714A526DC02190
:10184C0009010A408021C9008A420ED009D98021A1
:10185C0009018A4215D0C02109018A4207D1082505
:10186C0074E7002A03D1002570E704256EE71025E4
:10187C006CE702256AE7022568E7002566E7002584
:10188C0064E7022562E7022D00D1C1E02ED9042DB8
:10189C0000D1DAE0082D01D000F007FD636A002BBF
:1018AC0000D122E1012B00D122E1022B00D122E157
:1018BC00032B00D122E1042B00D121E1052B00D117
:1018CC0021E1062B00D120E1072B00D11FE1082BD1
:1018DC0000D11FE1092B00D11FE10A2B00D11FE120
:1018EC000B2B00D1E9E08020000226E0002D01D076
:1018FC0000F0DBFCFFF7B6FD636A002B1AD0012B5E
:10190C005FD0022B5FD0032B5FD0042B5FD0052B55
:10191C005FD0062B5FD0072B5FD0082B72D0092B22
:10192C0072D00A2B72D00B2B01D0012103E0802145
:10193C00490000E00121FEF7DFFB002801D100F097
:10194C00B6FC626853009B18834201D900F0B1FCCD
:10195C001303834201D200F0AEFC022D00D142E110
:10196C0000D8E0E0042D00D186E1082D00D046E23D
:10197C00636A002B00D110E2012B00D11AE2022B7A
:10198C0000D11BE2032B00D11CE2042B00D11CE282
:10199C00052B00D11DE2062B00D11DE2072B00D137
:1019AC001DE2082B00D11EE2092B00D11FE20A2BED
:1019BC0000D120E20B2B00D1EBE18026360400276E
:1019CC00EEE10221B7E70421B5E70621B3E70821D0
:1019DC00B1E70A21AFE70C21ADE71021ABE7C04618
:1019EC00F369FFCFFFCFFFFF00800040FFF4FF1132
:1019FC00003801400044004000480040004C0040CA
:101A0C0000100240202196E7402194E7802192E7C4
:101A1C00636A002B53D0012B53D0022B53D0032BD2
:101A2C0053D0042B53D0052B53D0062B53D0072B5C
:101A3C0053D0082B53D0092B53D00A2B53D00B2B3C
:101A4C0001D0AA4879E7AA4877E7FFF7E5FB636A74
:101A5C00002B1AD0012B1CD0022B1CD0032B1CD01A
:101A6C00042B1CD0052B1CD0062B1CD0072B1CD0F8
:101A7C00082B1CD0092B1CD00A2B1CD00B2B01D0F3
:101A8C00012103E08021490000E00121FEF734FB35
:101A9C0053E70221FAE70421F8E70621F6E70821CB
:101AAC00F4E70A21F2E70C21F0E71021EEE7202100
:101ABC00ECE74021EAE78021E8E780203DE78B480E
:101ACC003BE78C4839E78C4837E78C4835E78C483E
:101ADC0033E78C4831E78C482FE78C482DE78C484E
:101AEC002BE78C4829E78C4827E78020000224E765
:101AFC008020C00121E7802080011EE787481CE779
:101B0C008020400119E7864817E7864815E78020B2
:101B1C00000112E78020C0000FE7802080000CE756
:101B2C008020400009E7002D00D068E1FFF79AFC07
:101B3C00636A002B1CD0012B37D0022B38D0032B1F
:101B4C0039D0042B3AD0052B3BD0062B3CD0072B9D
:101B5C003DD0082B3ED0092B3FD00A2B40D00B2B6D
:101B6C0002D00122002305E080225200002301E074
:101B7C00012200230021FEF735FC050E0B022B433E
:101B8C000202656868080021801859412A00002368
:101B9C00FEF728FC020000206349644BD3188B42EB
:101BAC0000D98AE32368DA60B9E202220023E1E774
:101BBC0004220023DEE706220023DBE708220023B1
:101BCC00D8E70A220023D5E70C220023D2E7102203
:101BDC000023CFE720220023CCE740220023C9E7D3
:101BEC0080220023C6E7636A002B1BD0012B25D073
:101BFC00022B26D0032B27D0042B28D0052B29D041
:101C0C00062B2AD0072B2BD0082B2CD0092B2DD010
:101C1C000A2B2ED00B2B02D0454E002704E0334E5E
:101C2C00002701E0424E002750080021801979411D
:101C3C000023FEF7D7FB02000020ADE73D4E002746
:101C4C00F2E73D4E0027EFE73C4E0027ECE73C4E19
:101C5C000027E9E73B4E0027E6E73B4E0027E3E78A
:101C6C003A4E0027E0E73A4E0027DDE7394E0027D1
:101C7C00DAE7394E0027D7E7FFF7CEFA636A002B75
:101C8C001CD0012B2FD0022B68D0032B69D0042B36
:101C9C006AD0052B6BD0062B6CD0072B6DD0082B84
:101CAC006ED0092B6FD00A2B70D00B2B02D00122D7
:101CBC00002305E080225200002301E001220023D2
:101CCC000021FEF78FFB050E0B022B430202656809
:101CDC0068080021801859412A000023FEF782FB76
:101CEC000200002058E702220023E9E70024F40058
:101CFC0024F4000000127A0000093D00AAB028006C
:101D0C0080841E00006A18005558140040420F00D1
:101D1C0020A1070090D0030048E8010055150000F1
:101D2C00CC0C0000AA0A0000FFFC0F0000FDFFFF16
:101D3C00000024F40000127A0000093D00AAB0282B
:101D4C000080841E00006A18005558140040420F91
:101D5C000020A1070090D0030048E80104220023D2
:101D6C00AEE706220023ABE708220023A8E70A22ED
:101D7C000023A5E70C220023A2E7102200239FE7F3
:101D8C00202200239CE74022002399E78022002395
:101D9C0096E780263602002702E0802636040027CC
:101DAC0050080021801979410023FEF71BFB02002B
:101DBC000020F1E68026F6030027F1E78026B60323
:101DCC000027EDE7A74E0027EAE7802676030027D9
:101DDC00E6E7A54E0027E3E7A44E0027E0E78026C0
:101DEC0036030027DCE78026F6020027D8E780269A
:101DFC00B6020027D4E7802676020027D0E7012020
:101E0C000022C9E6022D00D182E02DD9042D00D18B
:101E1C00BAE0082D00D022E1636A002B00D1F7E074
:101E2C00012B00D100E1022B00D100E1032B00D1EA
:101E3C0000E1042B00D1FFE0052B00D1FFE0062BC5
:101E4C0000D1FEE0072B00D1FDE0082B00D1FDE016
:101E5C00092B00D1FDE00A2B00D1FDE00B2B00D1AA
:101E6C00D4E080235B02D5E0002D00D0F7E0FFF733
:101E7C00F9FA636A002B1AD0012B35D0022B35D01E
:101E8C00032B35D0042B35D0052B35D0062B35D074
:101E9C00072B35D0082B35D0092B35D00A2B35D054
:101EAC000B2B01D0012103E08021490000E001212E
:101EBC00FEF722F9400063685B08C0186168FEF702
:101ECC001BF903041B0C002069491A00103A8A42C2
:101EDC0000D9F4E10F22190091435B08083A134032
:101EEC000B432268D3601AE10221E1E70421DFE70A
:101EFC000621DDE70821DBE70A21D9E70C21D7E72A
:101F0C001021D5E72021D3E74021D1E78021CFE76D
:101F1C00636A002B19D0012B22D0022B22D0032B69
:101F2C0022D0042B22D0052B22D0062B22D0072B1B
:101F3C0022D0082B22D0092B22D00A2B22D00B2BFB
:101F4C0001D04C4B02E04C4B00E04A4B626850080D
:101F5C00C0181100FEF7D0F803041B0C0020B3E7E7
:101F6C00464BF3E7464BF1E7464BEFE7464BEDE7C5
:101F7C00464BEBE7464BE9E7464BE7E7464BE5E7D5
:101F8C00464BE3E7464BE1E7FFF746F9636A002B64
:101F9C001AD0012B26D0022B26D0032B26D0042BB3
:101FAC0026D0052B26D0062B26D0072B26D0082B87
:101FBC0026D0092B26D00A2B26D00B2B01D00121A1
:101FCC0003E08021490000E00121FEF795F8400074
:101FDC0063685B08C0186168FEF78EF803041B0C7D
:101FEC00002071E70221F0E70421EEE70621ECE77F
:101FFC000821EAE70A21E8E70C21E6E71021E4E7EB
:10200C002021E2E74021E0E78021DEE7F53301E023
:10201C0080235B0262685008C0181100FEF76CF850
:10202C0003041B0C00204FE780231B02F2E78023E4
:10203C00DB01EFE71B4BEDE780239B01EAE71A4B33
:10204C00E8E71A4BE6E780235B01E3E780231B01FB
:10205C00E0E78023DB00DDE780239B00DAE701204B
:10206C00002331E70055150000CC0C0000AA0A0033
:10207C00EFFF00000048E80148E801000024F400EC
:10208C0000127A005461510000093D0000D4300068
:10209C00AAB0280080841E0040420F0020A1070037
:1020AC0090D00300AA2A00009819000054150000D3
:1020BC00002D00D0F6E0FFF7D5F9636A002B1AD09B
:1020CC00012B35D0022B35D0032B35D0042B35D03A
:1020DC00052B35D0062B35D0072B35D0082B35D01A
:1020EC00092B35D00A2B35D00B2B01D0012103E065
:1020FC008021490000E00121FDF7FEFF63685B08C9
:10210C00C0186168FDF7F8FF03041B0C00206E4932
:10211C001A00103A8A4200D9D3E02268D360012316
:10212C006A22A352023AA3520023E3662367F8BD46
:10213C000221E1E70421DFE70621DDE70821DBE7E7
:10214C000A21D9E70C21D7E71021D5E72021D3E7C5
:10215C004021D1E78021CFE7636A002B19D0012BF6
:10216C0022D0022B22D0032B22D0042B22D0052BE1
:10217C0022D0062B22D0072B22D0082B22D0092BC1
:10218C0022D00A2B22D00B2B01D0504B02E0504B0B
:10219C0000E04E4B62685008C0181100FDF7ACFF10
:1021AC0003041B0C0020B2E74A4BF3E74A4BF1E760
:1021BC004A4BEFE74A4BEDE74A4BEBE74A4BE9E773
:1021CC004A4BE7E74A4BE5E74A4BE3E74A4BE1E783
:1021DC00FFF722F8636A002B1AD0012B25D0022BB3
:1021EC0025D0032B25D0042B25D0052B25D0062B51
:1021FC0025D0072B25D0082B25D0092B25D00A2B31
:10220C0025D00B2B01D0012103E08021490000E0F7
:10221C000121FDF771FF63685B08C0186168FDF769
:10222C006BFF03041B0C002071E70221F1E7042172
:10223C00EFE70621EDE70821EBE70A21E9E70C219E
:10224C00E7E71021E5E72021E3E74021E1E78021E2
:10225C00DFE7753301E080231B0262685008C01869
:10226C001100FDF749FF03041B0C00204FE78023EE
:10227C00DB01F2E780239B01EFE7204BEDE78023A6
:10228C005B01EAE71E4BE8E71E4BE6E780231B01E8
:10229C00E3E78023DB00E0E780239B00DDE780237E
:1022AC005B00DAE70120002331E7012037E700204B
:1022BC0035E7012033E7012031E701202FE701202A
:1022CC002DE701202BE7C046EFFF00000024F400AF
:1022DC0024F4000000127A0000093D00AAB0280086
:1022EC0080841E00006A18005558140040420F00EC
:1022FC0020A1070090D0030048E80100551500000C
:10230C00CC0C0000AA0A0000836ADB0706D5026821
:10231C0053682C490B40C16A0B435360836A9B077B
:10232C0006D50268536828490B40016B0B43536078
:10233C00836A5B0706D50268536824490B40416BDE
:10234C000B435360836A1B0706D502685368204908
:10235C000B40816B0B435360836ADB0606D5026826
:10236C0093681C490B40C16B0B439360836A9B06BB
:10237C0006D50268936818490B40016C0B439360B7
:10238C00836A5B060BD50268536814490B40416C99
:10239C000B43536080235B03426C9A420AD0836ADE
:1023AC001B0606D5026853680D490B40C16C0B43E4
:1023BC0053607047026853680A490B40816C0B43A9
:1023CC005360ECE7FFFFFDFFFFFFFEFFFFFFFBFF8E
:1023DC00FF7FFFFFFFEFFFFFFFDFFFFFFFFFEFFFC1
:1023EC00FFFFF7FFFFFF9FFFF0B5C64600B50600E5
:1023FC000C0017009846069D3368DB6923401B1BB5
:10240C005A425341BB421ED16B1CF5D0FEF740F92A
:10241C004346C01AA84201D8002DEDD1326813688A
:10242C000B490B40136032689368A331FF318B4327
:10243C00936020238022B3500432B3505C330022CB
:10244C00F254032000E0002004BC9046F0BDC046CE
:10245C005FFEFFFF30B583B0040088230022C2501A
:10246C00FEF716F9050023681B681B070ED42368BA
:10247C001B685B0717D420238022A3500432A3507F
:10248C005C330022E254002003B030BD80210C4BA1
:10249C0000930300002289032000FFF7A5FF00280A
:1024AC00E5D00320F0E78021054B00932B000022A0
:1024BC00C9032000FFF798FF0028DCD00320E3E7D6
:1024CC00FFFFFF0110B5041E30D08023C358002B32
:1024DC0022D080232422E2502268136801218B43EE
:1024EC0013602000FFF7F4F8012814D0A36A002B26
:1024FC0018D1226853680E490B40536022689368C8
:10250C002A218B4393602268136829390B4313608B
:10251C002000FFF79FFF10BD7C330022C25400F057
:10252C00D7F9D6E72000FFF7EFFEE2E70120F2E74C
:10253C00FFB7FFFF70B584B0040002A9154A130061
:10254C0005CB05C16A4603CB03C2636E002B1AD0C0
:10255C00226895686D0E07231D409268520F134038
:10256C0002AEF05CC0006A46D15CFDF74FFE6A23F8
:10257C00E052705DC0006B46595DFDF747FE682365
:10258C00E05204B070BD01336A22A352023AA35246
:10259C00F7E7C046202A000870B57C23C35C012BEA
:1025AC0015D07C240126065580252423435102682E
:1025BC0013681168B1431160064A13400022426649
:1025CC0001680B60202343510255002070BD02208E
:1025DC00FCE7C046FFFFFFDFF8B504007C23C35CBB
:1025EC00012B1BD07C250120605580262423A35170
:1025FC0023681F681A6882431A6022689368DB009C
:10260C00DB08194391602000FFF794FF23681F60DB
:10261C002023A351002363550020F8BD0220FCE7C2
:10262C00F8B504007C23C35C012B1BD07C25012056
:10263C00605580262423A35123681F681A6882439F
:10264C001A6022689368084803401943916020007F
:10265C00FFF770FF23681F602023A35100236355ED
:10266C000020F8BD0220FCE7FFFFFFF170B58AB037
:10267C001422002105A800F0B9F9194B596B04225A
:10268C0011435963596B0A400192019A5A6B2025E8
:10269C002A435A635A6B2A400292029A5A6B0124BB
:1026AC0022435A635A6B22400392039A596B0222BB
:1026BC00114359635B6B1A400492049BA026F605E8
:1026CC00002220213000FEF701F905950694002325
:1026DC000793089305A93000FEF73EF80AB070BDC9
:1026EC000010024010B5104C104B2360104B63606F
:1026FC0080235B05A3600023E36023610C226261ED
:10270C00A36123626362A36263662000FFF7DAFEB3
:10271C0000212000FFF760FF00212000FFF780FF61
:10272C002000FFF739FF10BD78000020008000402A
:10273C002433030010B50D4C0D4B23600D4B63601F
:10274C000023A3600122E26023616361A361E36162
:10275C0023622000FEF7A4F900212000FEF7BCFA4A
:10276C0000212000FEF7E4FA10BDC0462C0000202A
:10277C00005400405D3E302030B5A1B0382200211D
:10278C0012A800F033F9102200210EA800F02EF947
:10279C003422002101A800F029F980208000FEF7E6
:1027AC00F1FA01251295A023DB021393002419944E
:1027BC0012A8FEF711FB07230E930F95109411949A
:1027CC0001210EA8FEF786FD602301930494059465
:1027DC0001A8FEF75BFE21B030BD000000B585B04E
:1027EC00FDF736FFFFF7C8FFFFF740FFFFF77AFF53
:1027FC00FFF7A0FF02AB11221A7011325A7011327E
:10280C009A701132DA7011321A7111325A710A231C
:10281C000093053B02AAA6210548FEF7A7F9322032
:10282C00FDF73CFFA0202021C005FEF755F8EEE790
:10283C002C00002082B00A4B196C01221143196440
:10284C00196C0A400092009ADA6B802149050A4300
:10285C00DA63DB6B0B400193019B02B07047C046FF
:10286C000010024010B588B004001422002103A807
:10287C0000F0BCF82268134B9A4201D008B010BD8E
:10288C00114C626B02231A436263626B1340019317
:10289C00019BC0239B00039312230493113B0593CC
:1028AC00023306930333079303A90848FDF754FF3B
:1028BC00E26B802189030A43E263E36B0B400293D2
:1028CC00029BDBE700540040001002400004005063
:1028DC0010B588B004001422002103A800F086F87B
:1028EC002268114B9A4201D008B010BD0F4BD96B26
:1028FC00802040030143D963DA6B02400192019AB4
:10290C00596B0122114359635B6B1A400292029B73
:10291C000C2303930A3B049304330793A02003A9CD
:10292C00C005FDF719FFDFE70080004000100240F2
:10293C007047FEE77047704710B5FDF79DFE10BD60
:10294C00024B802212059A607047C04600ED00E0F1
:10295C000D488546002103E00C4B5B584350043175
:10296C000B480C4B42189A42F6D30B4A02E0002358
:10297C0013600432094B9A42F9D3FFF7E1FF00F0E0
:10298C0011F8FFF72BFFFEE700900020A02A0008AB
:10299C00000000200C0000200C000020040100208E
:1029AC00FEE7000070B500260C4D0D4C641BA41006
:1029BC00A64209D1002600F021F80A4D0A4C641BEE
:1029CC00A410A64205D170BDB300EB589847013650
:1029DC00EEE7B300EB5898470136F2E7982A000867
:1029EC00982A0008982A00089C2A0008030012184C
:1029FC00934200D1704719700133F9E7F8B5C0461E
:102A0C00F8BC08BC9E467047F8B5C046F8BC08BC7C
:042A1C009E4670471B
:102A2000010101030701000008040204080101017B
:102A30000000000000000000000000000000000096
:102A40000000000000000000000000000000000086
:102A5000010000000200000003000000040000006C
:102A60000600000007000000080000000900000048
:102A70000000000000000000000000000000000056
:102A8000010000000200000003000000040000003C
:082A9000A0D9FF7F0100000046
:042A9800E50000084D
:042A9C00BD00000871
:0C2AA00001000000040000000024F4000D
:040000050800295D69
:00000001FF
